:100000000C9479000C94D3080C94AC080C94A100C7
:100010000C94A1000C94A1000C94A1000C94A100DC
:100020000C94A1000C94A1000C94A1000C94FA086B
:100030000C94A1000C94A1000C94A1000C94A100BC
:100040000C9462080C94A1000C94A1000C94A100E3
:100050000C94A1000C94A1000C94A1000C94A1009C
:100060000C94B6090C94A100084AD73B3BCE016E14
:1000700084BCBFFDC12F3D6C74319ABD56833DDAFF
:100080003D00C77F11BED9E4BB4C3E916BAAAABE0E
:10009000000000803F00000000002300260029002F
:1000A00000000000240027002A00000000002500B6
:1000B00028002B00040404040404040402020202C5
:1000C000020203030303030301020408102040801B
:1000D000010204081020010204081020000000089A
:1000E00000020100000304070000000000000000FF
:1000F000D50A11241FBECFEFD8E0DEBFCDBF11E07F
:10010000A0E0B1E0E0EAF2E202C005900D92A63173
:10011000B107D9F722E0A6E1B1E001C01D92A837EE
:10012000B207E1F710E0C9E7D0E004C02197FE0173
:100130000E944811C837D107C9F70E944D0B0C9493
:100140004E110C940000833081F028F4813099F036
:100150008230A9F008958730A9F08830C9F0843042
:10016000B1F4809180008F7D03C0809180008F77F3
:1001700080938000089584B58F7784BD089584B5F9
:100180008F7DFBCF8091B0008F778093B000089572
:100190008091B0008F7DF9CF1F93CF93DF93282FED
:1001A00030E0F901E452FF4F8491F901E853FF4F29
:1001B000D491F901EC54FF4FC491CC23A9F0162F30
:1001C00081110E94A300EC2FF0E0EE0FFF1FE65517
:1001D000FF4FA591B4918FB7F894EC91111108C01D
:1001E000D095DE23DC938FBFDF91CF911F910895CF
:1001F000DE2BF8CF3FB7F89480916E0190916F019C
:10020000A0917001B091710126B5A89B05C02F3F48
:1002100019F00196A11DB11D3FBFBA2FA92F982F2C
:100220008827BC01CD01620F711D811D911D42E027
:10023000660F771F881F991F4A95D1F708958F92EF
:100240009F92AF92BF92CF92DF92EF92FF924B01BB
:100250005C010E94FA006B017C010E94FA006C199B
:100260007D098E099F09683E734081059105A8F3B9
:1002700021E0821A9108A108B10888EEC80E83E037
:10028000D81EE11CF11C81149104A104B10429F7CA
:10029000FF90EF90DF90CF90BF90AF909F908F90A6
:1002A000089508950895089520913B01260F33275E
:1002B000331F21323105ECF42091BE01FC0190E0A6
:1002C00080E0243069F082E00895A0913B01219103
:1002D000AC01455E5E4FA40FB52FB11D2C93019666
:1002E000861798F380913B01680F60933B0180E093
:1002F000089581E008951092BE0181E08093BD01D0
:100300001092980161E082E10E94CC0061E083E1FB
:100310000E94CC00E9EBF0E080818E7F80838081B9
:100320008D7F808388E48093B80085E48093BC004F
:100330000895CF93DF9391E090931A018823B9F049
:10034000C091B800D091BA008091BC008A7B8093A4
:10035000BC0060E082E10E94CC0060E083E10E948A
:10036000CC000E947B01D093BA00C093B800DF910B
:10037000CF9108958F929F92AF92BF92CF92DF92CA
:10038000EF92FF920F931F93CF93DF93D091E701EA
:10039000D13208F0D7C0182FC091E6010E94FA00B0
:1003A0006B017C018091BE0181116BC082E0809362
:1003B000BE011093BD018FEF8093BC011092BB0171
:1003C000D093BA01A6ECB1E0EAE9F1E080E0D813FD
:1003D00091C01092990180919901CC0FC82BC093C4
:1003E000990180919801813009F088C0109298019C
:1003F0000E94FA006B017C01809199018093BB00FF
:100400008091C0019091C101A091C201B091C3013E
:10041000892B8A2B8B2BA1F00E94FA000091C0013E
:100420001091C1012091C2013091C3016C197D0965
:100430008E099F09061717072807390708F442C0D5
:100440008091BC0083FDD8CF85EC8093BC000E94D6
:10045000FA006B017C018091BE01823009F450C02A
:100460008091BC018F3F09F46FC08091BC01803244
:1004700009F46CC08091BC01803309F469C084E048
:1004800026C08091C0019091C101A091C201B0919C
:10049000C301892B8A2B8B2B09F484CF0E94FA008D
:1004A0008090C0019090C101A090C201B090C301A2
:1004B0006C197D098E099F0986169706A806B9064C
:1004C00008F070CF8091BF010E94990185E01092E1
:1004D000C5011092E7011092C401DF91CF911F91E5
:1004E0000F91FF90EF90DF90CF90BF90AF909F90D3
:1004F0008F9008959D9191938F5F69CF85EEA5CFE1
:100500008091C0019091C101A091C201B091C3013D
:10051000892B8A2B8B2B09F49ECF0E94FA00009125
:10052000C0011091C1012091C2013091C3016C1929
:100530007D098E099F09061717072807390708F054
:100540008ACFC0CF81E0C3CF80E0C1CF82E0BFCFF0
:1005500083E0BDCF1F93CF93DF93162FCCE1D2E082
:10056000A981BA819B8121E02093C4019093E60187
:100570001092C5011092E701ED91FC911197019045
:10058000F081E02D682FCD01099589819A81DC01E8
:10059000ED91FC910190F081E02D612F099581E0B2
:1005A000DF91CF911F910C94BA010895E0917701EA
:1005B00080917601E81730F4F0E0E858FE4F808132
:1005C00090E008958FEF9FEF0895909177018091CB
:1005D00076012FEF3FEF981748F4E92FF0E0E85845
:1005E000FE4F208130E09F5F90937701C90108950D
:1005F0008091760190917701891B990B0895CF9294
:10060000DF92EF92FF920F931F93CF93DF937C01C2
:10061000CB018A012091C401222389F0EB016B01F7
:10062000C40ED51ECC15DD0569F06991D701ED9199
:10063000FC910190F081E02DC7010995F3CF642F63
:100640000E945401C801DF91CF911F910F91FF903B
:10065000EF90DF90CF900895CF93DF931F92CDB7A7
:10066000DEB769832091C4012223F9F02091E701CC
:10067000203258F021E030E0FC013383228390E007
:1006800080E00F90DF91CF9108958091C501E82F10
:10069000F0E0EA53FE4F998190838F5F8093C5010C
:1006A0008093E70181E090E0ECCF61E0CE0101961C
:1006B0000E945401F7CF90E080E008950F931F93BC
:1006C000CF93DF93EEEDF0E08491EAECF0E0D4918B
:1006D000E6EBF0E0C491CC23E9F081110E94A30085
:1006E000EC2FF0E0EE0FFF1FEA56FF4FA591B491FB
:1006F000EC91ED2379F00E94FA006093160170935B
:1007000017018093180190931901DF91CF911F91E8
:100710000F9108950E94FA0000911601109117019F
:100720002091180130911901601B710B70936C01BD
:1007300060936B012FB7F8948091720190917301CF
:10074000A0917401B09175012FBF809363019093C4
:100750006401A0936501B0936601D7CF4F925F9279
:100760006F927F928F929F92AF92BF92CF92DF92C1
:10077000EF92FF920F931F93CF93DF93CDB7DEB726
:100780002E970FB6F894DEBF0FBECDBF80911D022D
:1007900090911E0220911F0231E03093C4012093FA
:1007A000E6011092C5011092E701DC01ED91FC9188
:1007B0000190F081E02D6BE3099580E00E94BA0181
:1007C00010911F020E94FA004B015C018091BE0152
:1007D000811166C081E08093BE018093BD019FEFCF
:1007E0009093BC011092BB019DE09093BA0180935D
:1007F000990180919901110F182B10939901809103
:100800009801813009F0A9C1109298010E94FA0064
:100810004B015C01809199018093BB008091C001E4
:100820009091C101A091C201B091C301892B8A2B83
:100830008B2BA1F00E94FA000091C0011091C10120
:100840002091C2013091C301681979098A099B0975
:10085000061717072807390708F443C08091BC0022
:1008600083FDD8CF85EC8093BC000E94FA004B0139
:100870005C018091BE01813009F471C18091BB019E
:100880008E3008F08EC18091BB01AAE9B1E0E8E7A3
:10089000F1E090E0981751F12D9121939F5FFACFED
:1008A0008091C0019091C101A091C201B091C3019A
:1008B000892B8A2B8B2B09F489CF0E94FA00409058
:1008C000C0015090C1016090C2017090C3016819CD
:1008D00079098A099B09461657066806790608F0C1
:1008E00075CF8091BF010E94990180E0109277013D
:1008F000809376018E010F5F1F4F6E01BFE0CB0E1C
:10090000D11C80911D0290911E02DC01ED91FC91A1
:100910000284F385E02D0995B82E80911D029091F7
:100920001E02DC01ED91FC910284F385E02D099516
:10093000E12C8E299B29F801819391938F01CE168A
:10094000DF06F9F6C0902402D0902502E09026023E
:10095000F090270269817A81072E000C880B990B91
:100960000E948C0FA70196010E94E20E2091340292
:100970003091350240913602509137020E94FE0DAF
:10098000609344027093450280934602909347021D
:100990006B817C81072E000C880B990B0E948C0FB9
:1009A000A70196010E94E20E20913802309139028F
:1009B00040913A0250913B020E94FE0D6093480222
:1009C0007093490280934A0290934B0280911C02DB
:1009D00061E06827681B770B072E000C880B990BCA
:1009E0000E948C0F4B015C016D817E81072E000CF3
:1009F000880B990B0E948C0F9B01AC01C501B401BF
:100A00000E947010A70196010E94E20E20913C0204
:100A100030913D0240913E0250913F020E94FE0DF6
:100A200060934C0270934D0280934E0290934F025C
:100A30006F817885072E000C880B990B0E948C0F14
:100A400020E030EF41E456E40E94FF0D20E030E06A
:100A50004AEA53E40E94E20E60934002709341021E
:100A60008093420290934302C0902002D0902102D2
:100A7000E0902202F090230269857A85072E000C0F
:100A8000880B990B0E948C0FA70196010E94E20E21
:100A9000209128023091290240912A0250912B0284
:100AA0000E94FE0D60935002709351028093520297
:100AB000909353026B857C85072E000C880B990B55
:100AC0000E948C0FA70196010E94E20E20912C0239
:100AD00030912D0240912E0250912F020E94FE0D66
:100AE000609354027093550280935602909357027C
:100AF0006D857E85072E000C880B990B0E948C0F4C
:100B0000A70196010E94E20E20913002309131023D
:100B100040913202509133020E94FE0D60935802C0
:100B20007093590280935A0290935B022E960FB6EF
:100B3000F894DEBF0FBECDBFDF91CF911F910F9113
:100B4000FF90EF90DF90CF90BF90AF909F908F90ED
:100B50007F906F905F904F90089585EE84CE809146
:100B6000C0019091C101A091C201B091C301892B34
:100B70008A2B8B2B09F47DCE0E94FA000091C001D4
:100B80001091C1012091C2013091C3016819790906
:100B90008A099B09061717072807390708F069CE45
:100BA000A0CE8EE072CE4F925F926F927F928F9224
:100BB0009F92AF92BF92CF92DF92EF92FF920F93EC
:100BC0001F93CF93DF93CDB7DEB72C970FB6F89472
:100BD000DEBF0FBECDBF0E94AE03C0904C02D090CE
:100BE0004D02E0904E02F0904F0221E030E03A8357
:100BF000298320E030E0A901C701B6010E946310FB
:100C000087FF02C01A82198201E010E020E030E084
:100C1000A901C701B6010E94DD0E87FD02C010E0E8
:100C200000E069817A81601B710B072E000C880B34
:100C3000990B0E948C0F6D837E838F839887A70109
:100C40009601C701B6010E9470102B013C01C090B3
:100C50004402D0904502E0904602F0904702A7017E
:100C60009601C701B6010E947010A30192010E9473
:100C7000FF0D0E94E3109B01AC0180904802909010
:100C80004902A0904A02B0904B026D817E818F8113
:100C900098850E9470109B01AC01C501B4010E94AF
:100CA0007E0E21EE3EE245E652E40E947010609313
:100CB0005C0270935D0280935E0290935F02A501D7
:100CC0009401C501B4010E947010A30192010E9419
:100CD000FF0D0E94E3109B01AC01C701B6010E9409
:100CE0007E0E905821EE3EE245E652E40E947010DE
:100CF000609360027093610280936202909363023A
:100D00008FB7F894C0907201D0907301E090740195
:100D1000F09075018FBF8091700290917102A09147
:100D20007202B0917302A7019601281B390B4A0B7E
:100D30005B0BCA01B9010E948A0F2FE632E143E83A
:100D40005AE30E9470104B015C01C0927002D09275
:100D50007102E0927202F09273028091740290919B
:100D60007502A0917602B091770289839A83AB8352
:100D7000BC8340905C0250905D0260905E02709077
:100D80005F022091500230915102409152025091E5
:100D90005302C501B4010E94701020916402309189
:100DA000650240916602509167020E94FF0DA30107
:100DB00092010E94FE0D6B017C0120E030E044E3D3
:100DC00053E40E94631018163CF420E030E044EB3A
:100DD00053E4C701B601EDCF20E030E044E353EC2B
:100DE000C701B6010E94DD0E87FF0BC020E030E096
:100DF00044EB53E4C701B6010E94FF0D6B017C0177
:100E0000EBCF29813A814B815C8160E070E080E822
:100E10009FE30E94FE0D69877A878B879C87A701D5
:100E20009601C301B2010E94FF0D29813A814B81D5
:100E30005C810E9470106B017C0129853A854B858D
:100E40005C85C301B2010E9470109B01AC01C70117
:100E5000B6010E94FF0D6B017C0120E030E044E30D
:100E600053E40E94631018164CF420E030E044EB89
:100E700053E4C701B6010E94FE0DEDCF20E030E043
:100E800044E353ECC701B6010E94DD0E87FF0BC09F
:100E900020E030E044EB53E4C701B6010E94FF0DAF
:100EA0006B017C01EBCFC0926402D0926502E092AC
:100EB0006602F0926702409060025090610260907A
:100EC0006202709063022091540230915502409169
:100ED0005602509157026D817E818F8198850E94C4
:100EE0007010A50194010E94701020916802309149
:100EF000690240916A0250916B020E94FF0DA301AA
:100F000092010E94FE0D6B017C0120E030E044EB79
:100F100052E40E94631018163CF420E030E044E3F1
:100F200053E4C701B601EDCF20E030E044EB52ECD2
:100F3000C701B6010E94DD0E87FF0BC020E030E044
:100F400044E353E4C701B6010E94FF0D6B017C012D
:100F5000EBCFA7019601C301B2010E94FF0D2981C9
:100F60003A814B815C810E9470106B017C01A3016E
:100F7000920169857A858B859C850E9470109B0102
:100F8000AC01C701B6010E94FF0D6B017C0120E09E
:100F900030E044EB52E40E94631018164CF420E059
:100FA00030E044E353E4C701B6010E94FE0DEDCFEB
:100FB00020E030E044EB52ECC701B6010E94DD0EA8
:100FC00087FF0BC020E030E044E353E4C701B601E3
:100FD0000E94FF0D6B017C01EBCFC0926802D092A2
:100FE0006902E0926A02F0926B02209158023091FD
:100FF000590240915A0250915B02C501B4010E940E
:10100000701020916C0230916D0240916E025091EF
:101010006F020E94FF0D60936C0270936D028093CB
:101020006E0290936F022C960FB6F894DEBF0FBE3F
:10103000CDBFDF91CF911F910F91FF90EF90DF9087
:10104000CF90BF90AF909F908F907F906F905F9068
:101050004F90089585ED8093BC008091C0019091E0
:10106000C101A091C201B091C3010796A11DB11D9C
:1010700023E0B695A795979587952A95D1F7209166
:10108000BC0024FD03C01092BE0108954091C00130
:101090005091C1016091C2017091C301452B462B53
:1010A000472B69F30097A105B10541F02AE22A9583
:1010B000F1F700C00197A109B109E1CF8091BF010B
:1010C0000C9499011F920F920FB60F9211242F9337
:1010D0003F938F939F93AF93BF93809172019091B1
:1010E0007301A0917401B091750130916D0123E0FD
:1010F000230F2D3758F50196A11DB11D20936D01C9
:101100008093720190937301A0937401B093750161
:1011100080916E0190916F01A0917001B091710169
:101120000196A11DB11D80936E0190936F01A09354
:101130007001B0937101BF91AF919F918F913F91D9
:101140002F910F900FBE0F901F90189526E8230F38
:101150000296A11DB11DD2CF1F920F920FB60F9212
:1011600011242F933F934F935F936F937F938F93AC
:101170009F93AF93BF93EF93FF93E0910201F091A0
:1011800003010995FF91EF91BF91AF919F918F91CD
:101190007F916F915F914F913F912F910F900FBE73
:1011A0000F901F9018951F920F920FB60F92112457
:1011B0002F933F934F935F936F937F938F939F935F
:1011C000AF93BF93EF93FF93E0910001F091010182
:1011D0000995FF91EF91BF91AF919F918F917F9171
:1011E0006F915F914F913F912F910F900FBE0F9094
:1011F0001F9018951F920F920FB60F9211242F93E4
:101200003F934F935F936F937F938F939F93AF938E
:10121000BF93CF93DF93EF93FF9380915E01C091D3
:101220000C02D0E087FF24C0109285001092840049
:1012300080915E018F5F80935E0180915E01082E38
:10124000000C990B8C179D0724F480915E018C3063
:10125000C4F18091840090918500049680349C496B
:1012600008F47AC08091840090918500049676C03D
:1012700080915E01082E000C990B8C179D07C4F617
:10128000E0915E018E2FEE0F990BFC01EE0FFF1F18
:10129000E80FF91FE851FE4F808186FFC9CFE0912A
:1012A0005E018E2FEE0F990BFC01EE0FFF1FE80F72
:1012B000F91FE851FE4F808160E08F730E94CC00DF
:1012C000B7CF2091840030918500E0915E018E2F90
:1012D000EE0F990BFC01EE0FFF1FE80FF91FE8510D
:1012E000FE4F81819281820F931F9093890080939A
:1012F0008800E0915E018E2FEE0F990BFC01EE0F3E
:10130000FF1FE80FF91FE851FE4F808186FF11C0D3
:10131000E0915E018E2FEE0F990BFC01EE0FFF1F87
:10132000E80FF91FE851FE4F808161E08F730E9442
:10133000CC00FF91EF91DF91CF91BF91AF919F9141
:101340008F917F916F915F914F913F912F910F906E
:101350000FBE0F901F90189580E49CE99093890030
:10136000809388008FEF80935E01E3CF1F920F92EE
:101370000FB60F9211242F933F934F935F936F9368
:101380007F938F939F93AF93BF93EF93FF9380913E
:10139000B900887F803609F44AC0F0F5883209F434
:1013A000A7C018F5803109F49BC0B8F4882309F46C
:1013B000F9C0883009F494C0FF91EF91BF91AF91CB
:1013C0009F918F917F916F915F914F913F912F915D
:1013D0000F900FBE0F901F901895883109F488C0A8
:1013E000803251F78093BC0114C0803409F49DC051
:1013F00040F48033B9F38833F9F68093BC0185EC6F
:10140000B0C0803509F485C0883509F496C08834A9
:1014100099F60E942A08D0CF883909F48CC038F593
:10142000883729F050F4883611F0803729F683E0A8
:101430008093BE0110925D0157C0883809F47BC0CB
:10144000803919F0803809F0B7CF80915D01803282
:1014500008F071C0E0915D0181E08E0F80935D0125
:101460008091BB00F0E0E35CFE4F80833DC0803B99
:1014700039F0E0F4803A09F479C0883A09F09CCF59
:1014800084E08093BE0110923C0110923B01E091F8
:101490006101F0916201099580913B0181110FC0BA
:1014A00081E080933B0110921B0109C0803C09F44C
:1014B000A6CF883C09F4A3CF883B09F07DCFE0910B
:1014C0003C0181E08E0F80933C01F0E0E55EFE4F31
:1014D00080818093BB0090913C0180913B0129C0A9
:1014E000809199018093BB0085EC8093BC0064CF10
:1014F0009091BB018091BA01981758F5E091BB011A
:1015000081E08E0F8093BB01F0E0E656FE4F8081B4
:10151000E9CFE091BB0181E08E0F8093BB01809108
:10152000BB00F0E0E656FE4F80839091BB018091B6
:10153000BA019817C8F285E8D8CFE091BB0181E0E5
:101540008E0F8093BB018091BB00F0E0E656FE4F0A
:1015500080838091BD0181115CCF81E080939801EF
:1015600084EA8093BC001092BE0126CF85EC809364
:10157000BC001092BE0180915D01803230F4E09198
:101580005D01F0E0E35CFE4F108260915D0170E070
:10159000E0915F01F09160018DE391E00995109277
:1015A0005D010ACF1092BC0134CF10921302109249
:1015B000120288EE93E0A0E0B0E0809314029093D2
:1015C0001502A0931602B093170288E091E0909361
:1015D00011028093100210921C0288E680931F0271
:1015E00080E192E090931E0280931D0288E491EEC8
:1015F000AAE7BFE38093740290937502A0937602EA
:10160000B0937702109228021092290210922A02B7
:1016100010922B0210922C0210922D0210922E0288
:1016200010922F0210923002109231021092320268
:101630001092330210923402109235021092360248
:1016400010923702109238021092390210923A0228
:1016500010923B0210923C0210923D0210923E0208
:1016600010923F0280910C028C3098F491E0980F18
:1016700090930C0280930D0290E0FC01EE0FFF1F8F
:10168000E80FF91FE851FE4F88EB9BE092838183BE
:1016900008958FEF80930D020895789484B5826049
:1016A00084BD84B5816084BD85B5826085BD85B506
:1016B000816085BD80916E00816080936E00109284
:1016C00081008091810082608093810080918100FF
:1016D0008160809381008091800081608093800090
:1016E0008091B10084608093B1008091B0008160EE
:1016F0008093B00080917A00846080937A0080911A
:101700007A00826080937A0080917A008160809371
:101710007A0080917A00806880937A001092C100EC
:1017200010927701109276011092C5011092E70194
:101730000E947B0181E591E09093620180936101B9
:1017400082E591E09093600180935F0161E08BE618
:101750000E94AA0260E089E10E94AA0260E08AE198
:101760000E94AA0280E090E0A3E8B2E48093200205
:1017700090932102A0932202B093230268E08BE1B0
:101780000E94AA0280E090E0A0E8B6E480932402E0
:1017900090932502A0932602B093270260E08CE18B
:1017A0000E94AA020E94D30580915C0290915D0282
:1017B000A0915E02B0915F028093640290936502F3
:1017C000A0936602B09367028091600290916102DB
:1017D000A0916202B09163028093680290936902C3
:1017E000A0936A02B0936B022FB7F89480917201B4
:1017F00090917301A0917401B09175012FBF8093F6
:10180000700290937102A0937202B093730268EE1B
:1018100073E080E090E00E941F0110922802109275
:10182000290210922A0210922B0210922C0210927E
:101830002D0210922E0210922F021092300210925E
:1018400031021092320210923302C4EFD1E0C12C67
:10185000D12C760146015701260137010E94AE03C3
:101860002091500230915102409152025091530206
:10187000C301B2010E94FF0D2B013C0120915402D3
:10188000309155024091560250915702C501B40162
:101890000E94FF0D4B015C012091580230915902CA
:1018A00040915A0250915B02C701B6010E94FF0DA0
:1018B0006B017C0161E070E080E090E00E941F011C
:1018C000219761F620E030E04AEF53E4C301B20112
:1018D0000E94E20E609328027093290280932A02EC
:1018E00090932B0220E030E04AEF53E4C501B401AD
:1018F0000E94E20E60932C0270932D0280932E02C0
:1019000090932F0220E030E04AEF53E4C701B60184
:101910000E94E20E60933002709331028093320293
:101920009093330280910D028C3008F065C0E1ED98
:10193000F0E02491EDEBF0E08491882399F090E0C1
:10194000880F991FFC01E056FF4FA591B491FC014F
:10195000E655FF4F859194918FB7F894EC91E22B67
:10196000EC938FBF80910D02282F30E0F901EE0F2C
:10197000FF1FE20FF31FE851FE4F9081907C9960AA
:10198000908310920E0210920F022CE0622F0E94A0
:101990003C11829FB00111249B012C0F3D1FF901C6
:1019A000EE0FFF1FE20FF31FE851FE4F908196FDEF
:1019B00015C02196CC30D10579F781110FC0109256
:1019C000800082E080938100109285001092840054
:1019D000B19A80916F00826080936F00E0910D0258
:1019E0008E2F90E0FC01EE0FFF1FE80FF91FE8516A
:1019F000FE4F808180648083EAECF0E02491E6EB86
:101A0000F0E084918823C1F090E0880F991FFC01D9
:101A1000E056FF4FC591D491FC01E655FF4FA591CB
:101A2000B4919FB7F8948881E22FE0958E23888344
:101A30008C91E823EC939FBF8EE593E09093010196
:101A400080930001809169008C7F816080936900A0
:101A5000E89A08E810E0A8E5AA2EA2E0BA2EB0E0C5
:101A60008B2EB0E09B2E0E94D305C0905802D090E0
:101A70005902E0905A02F0905B022FB7F8948091DF
:101A8000720190917301A0917401B09175012FBF03
:101A9000409163015091640160916501709166010C
:101AA000841B950BA60BB70BCCEDD5E0C297A10517
:101AB000B10520F4C0916B01D0916C0120E030E0C1
:101AC000A901C701B6010E94631018160CF48FC05B
:101AD000C701B601905820E030E040EC5FE30E947F
:101AE000631018160CF086C020E030E040E250E4AD
:101AF000C701B6010E9470106B017C0126E636E634
:101B000046E65FE360916701709168018091690129
:101B100090916A010E9470102B013C0120ED3CEC79
:101B20004CEC5DE3C701B6010E9470109B01AC0153
:101B3000C301B2010E94FF0D6093670170936801B9
:101B40008093690190936A01F0900D022BE02F15AC
:101B500008F440C00E94540F6C0F7D1F613D37E0B8
:101B6000730714F060ED77E0683E83E0780714F4C3
:101B700068EE73E080910E029801281B310987FD01
:101B80003395C901880F991F880F991F6817790726
:101B900084F080910F029501281B310987FD339550
:101BA000C901880F991F880F991F681779070CF4CE
:101BB000CB010297880F991F4FB7F8942F2D30E073
:101BC000F901EE0FFF1FE20FF31FE851FE4F928362
:101BD00081834FBF65E070E080E090E00E941F01CC
:101BE0008114910409F43FCF0E9400003CCFC7014B
:101BF000B60171CFC12CD12C760180CF5058BB27B4
:101C0000AA270E94160E0C9429100E941B1038F06F
:101C10000E94221020F039F49F3F19F426F40C940E
:101C2000F10F0EF4E095E7FB0C94EB0FE92F0E9407
:101C30003A1058F3BA17620773078407950720F024
:101C400079F4A6F50C945C100EF4E0950B2EBA2FE7
:101C5000A02D0B01B90190010C01CA01A0011124B2
:101C6000FF27591B99F0593F50F4503E68F11A165E
:101C7000F040A22F232F342F4427585FF3CF4695EF
:101C800037952795A795F0405395C9F77EF41F1611
:101C9000BA0B620B730B840BBAF09150A1F0FF0FDB
:101CA000BB1F661F771F881FC2F70EC0BA0F621FC7
:101CB000731F841F48F4879577956795B795F795B7
:101CC0009E3F08F0B0CF9395880F08F09927EE0F4C
:101CD0009795879508950E941B1060F080E891E029
:101CE00009F49EEF0E94221028F040E851E071F4C0
:101CF0005EEF0CC00C94F10F0C945C10E92FE078AF
:101D00000E943A1040F3092E052AB1F3261737072F
:101D10004807590738F00E2E07F8E02569F0E0254E
:101D2000E0640AC0EF6307F8009407FADB01B90129
:101D30009D01DC01CA01AD01EF930E94F90E0E94E2
:101D400029100E94AE0E5F91552339F02BED3FE034
:101D500049E450FD49EC0C94FF0D0895DF93DD2715
:101D6000B92FBF7740E85FE31616170648075B07F1
:101D700018F4D92F0E9468109F938F937F936F93CD
:101D80000E942311E8E6F0E00E94F40F0E9429105F
:101D90002F913F914F915F910E948310DD2351F06D
:101DA0009058A2EA2AED3FE049EC5FE3D0785D2746
:101DB0000E94160EDF910C9429100E94C70F08F4A0
:101DC00081E008950E94F60E0C9429100E942210C2
:101DD00058F00E941B1040F029F45F3F29F00C944A
:101DE000EB0F51110C945D100C94F10F0E943A10FE
:101DF00068F39923B1F3552391F3951B550BBB273A
:101E0000AA2762177307840738F09F5F5F4F220F7E
:101E1000331F441FAA1FA9F335D00E2E3AF0E0E875
:101E200032D091505040E695001CCAF72BD0FE2FBF
:101E300029D0660F771F881FBB1F26173707480753
:101E4000AB07B0E809F0BB0B802DBF01FF2793580B
:101E50005F4F3AF09E3F510578F00C94EB0F0C94D5
:101E60005D105F3FE4F3983ED4F3869577956795D0
:101E7000B795F7959F5FC9F7880F911D9695879540
:101E800097F90895E1E0660F771F881FBB1F62175F
:101E900073078407BA0720F0621B730B840BBA0B1D
:101EA000EE1F88F7E09508950E945B0F6894B111CA
:101EB0000C945D1008950E94421088F09F5798F08E
:101EC000B92F9927B751B0F0E1F0660F771F881F3F
:101ED000991F1AF0BA95C9F714C0B13091F00E9459
:101EE0005C10B1E008950C945C10672F782F882760
:101EF000B85F39F0B93FCCF3869577956795B39580
:101F0000D9F73EF490958095709561957F4F8F4FEE
:101F10009F4F0895E89409C097FB3EF490958095F3
:101F2000709561957F4F8F4F9F4F9923A9F0F92F9F
:101F300096E9BB279395F695879577956795B7951D
:101F4000F111F8CFFAF4BB0F11F460FF1BC06F5F03
:101F50007F4F8F4F9F4F16C0882311F096E911C015
:101F6000772321F09EE8872F762F05C0662371F036
:101F700096E8862F70E060E02AF09A95660F771F4A
:101F8000881FDAF7880F9695879597F90895990F26
:101F90000008550FAA0BE0E8FEEF16161706E80733
:101FA000F907C0F012161306E407F50798F0621B54
:101FB000730B840B950B39F40A2661F0232B242B29
:101FC000252B21F408950A2609F4A140A6958FEF48
:101FD000811D811D089597F99F6780E870E060E09A
:101FE00008959FEF80EC0895DF93CF931F930F9395
:101FF000FF92EF92DF927B018C01689406C0DA2E8B
:10200000EF010E948310FE01E894A591259135917E
:1020100045915591A6F3EF010E94160EFE0197011E
:10202000A801DA9469F7DF90EF90FF900F911F916C
:10203000CF91DF91089500240A941616170618060A
:102040000906089500240A941216130614060506BC
:102050000895092E0394000C11F4882352F0BB0F4D
:1020600040F4BF2B11F460FF04C06F5F7F4F8F4FB0
:102070009F4F089557FD9058440F551F59F05F3FEB
:1020800071F04795880F97FB991F61F09F3F79F09A
:1020900087950895121613061406551FF2CF46951C
:1020A000F1DF08C0161617061806991FF1CF86959E
:1020B0007105610508940895E894BB276627772782
:1020C000CB0197F908950E94C70F08F48FEF089588
:1020D0009B01AC0160E070E080E89FE30C94E20EAD
:1020E0000E9483100C9429100E941B1038F00E944B
:1020F000221020F0952311F00C94EB0F0C94F10FAB
:1021000011240C945D100E943A1070F3959FC1F356
:10211000950F50E0551F629FF001729FBB27F00D95
:10212000B11D639FAA27F00DB11DAA1F649F6627EA
:10213000B00DA11D661F829F2227B00DA11D621F39
:10214000739FB00DA11D621F839FA00D611D221FF3
:10215000749F3327A00D611D231F849F600D211DD7
:10216000822F762F6A2F11249F5750409AF0F1F05A
:1021700088234AF0EE0FFF1FBB1F661F771F881FC3
:1021800091505040A9F79E3F510580F00C94EB0F01
:102190000C945D105F3FE4F3983ED4F386957795F9
:1021A0006795B795F795E7959F5FC1F7FE2B880F69
:1021B000911D9695879597F9089519F416F40C9446
:1021C000F10F0C9427110E944210B8F39923C9F320
:1021D000B6F39F57550B87FF0E9435110024A0E6E8
:1021E00040EA900180585695979528F4805C660FD8
:1021F000771F881F20F026173707480730F4621B27
:10220000730B840B202931294A2BA6951794079428
:10221000202531254A2758F7660F771F881F20F0A1
:1022200026173707480730F4620B730B840B200D19
:10223000311D411DA09581F7B901842F9158880F58
:102240009695879508959B01AC010C9470109F3F63
:1022500031F0915020F4879577956795B795880F61
:10226000911D9695879597F9089591505040660F66
:10227000771F881FD2F70895991B79E004C0991F32
:10228000961708F0961B881F7A95C9F780950895D0
:10229000EE0FFF1F0590F491E02D0994F894FFCF05
:1022A00053015301000000002C03FF025B03D50221
:0622B000F802E502D6026F
:00000001FF
